:020000040000fa
:080000000002040000000000f2
:020000040000fa
:10000800b2030000ca030000b2040000e2030000cb
:10001800fa030000b2040000b2040000b2040000b9
:10002800b2040000b2040000b2040000280300007b
:10003800b2040000b2040000b2040000b2040000e0
:1000480012040000b2040000b2040000b204000070
:10005800b2040000d2020000b2040000b2040000a2
:10006800b2040000b2040000b2040000b2040000b0
:10007800b2040000b2040000b2040000b2040000a0
:10008800b2040000b2040000b2040000b204000090
:10009800b2040000b2040000b2040000b204000080
:020000040000fa
:100400006f1621000eff27000e018800000000007b
:10041000000020000000e000020032000001200087
:10042000200288000c000700808f200001002000bf
:100430000f000700000020000000e0000200320072
:100440000000020000000000f206020000000000b0
:100450000040da000000fe00200020000000e00064
:100460000200320010002000900188000000060009
:10047000a1028800800078000000eb001a0037001d
:10048000e280400054a0b4009101ba00e280400034
:1004900054a0b4009102ba00e280400054a0b4001d
:1004a0000002eb00472bde00f507b200a601880032
:1004b000602ce10008003a000049eb000201e8006e
:1004c000020039003420ec0002f0a0008301e900b2
:1004d000f9ff3e00040037006128e100010032000e
:1004e0000082eb00040007001101ba000200e000e6
:1004f000e3ff3a000000060004d0a300e20f490029
:100500001c003900810278003549ba000201e80078
:10051000020039003420ec0002f0a0008301e90061
:100520000f0032002549ba000201e800020039003c
:100530003420ec0002f0a0008301e9000800320042
:100540000400e0000600320015c9ba000201e8000c
:10055000020039003420ec0002f0a0008301e90021
:100560008180e80054a0b4000300e000e2ff3a00fc
:10057000000006009102ba00055978008301e900e5
:10058000f7ff3200c82ade00055978008301e90030
:10059000f3ff32000400e000f1ff320011d9ba008d
:1005a000eeff37003600f800809fbe00829fbe003d
:1005b000849fbe00869fbe003200f8003400f80021
:1005c00010002000a0018800100020009001880089
:1005d000000000000000fa0000808000017d200083
:1005e0008100680001f0a7008100ea008100e900b5
:1005f000cf08de00814078000000e800008088001d
:100600000104e0000300320070002000de0007005b
:100610000030ef0000188000808088002001210059
:1006200011c0b3000148780001a8a9000080fa00b9
:100630003400f9003200f9004f03be004f02be0043
:100640004f01be004f00be003600f900004006001a
:100650003600f800809fbe00829fbe00849fbe00cf
:10066000869fbe003200f8003400f8001000200021
:10067000a001880010002000900188000000000008
:100680000000fa006000210090407800a0c3b30091
:1006900080cf500006003e0060002100104078002e
:1006a0008040e80060002100014878001e0037000b
:1006b000600021008040eb000148780050002100dc
:1006c00090407800a0c3b30080cf500006003e00e9
:1006d00050002100104078008040e80050002100c8
:1006e0000148780010003700500021008040eb00e6
:1006f000014878004000210010407800f64f50007b
:1007000006003e0040002100104078008040e800d4
:10071000400021000148780003003700400021001c
:100720008040eb0001487800a000210011c0b30018
:100730000148780080002000930007000068a900ad
:100740000080fa003400f9003200f9004f03be00c7
:100750004f02be004f01be004f00be003600f90040
:10076000004006003200f8003400f800881f7800ce
:1007700018002000a80188001800200098018800b7
:10078000000000004f0478000000fa00c028a90013
:10079000ffff37003200f8003400f800881f7800af
:1007a00018002000a8018800180020009801880087
:1007b000000000004f0478000000fa00c068a900a3
:1007c000ffff37003200f8003400f800881f78007f
:1007d00018002000a8018800180020009801880057
:1007e000000000004f0478000000fa00c048a90093
:1007f000ffff37003200f8003400f800881f78004f
:1008000018002000a8018800180020009801880026
:10081000000000004f0478000000fa00c088a90022
:10082000ffff37003600f800809fbe00829fbe00a9
:10083000849fbe00869fbe003200f8003400f8009e
:1008400010002000a0018800100020009001880006
:10085000000000000200fa000040eb00004f7800aa
:10086000330037001e80fb00ea00b90080007800ea
:10087000c005210000804000100078000000e0006a
:100880002a0032001e81fb00ea10b900e600400099
:10089000c0052100008040001000be006100400043
:1008a000e0804800ea11b9008201780022062100a8
:1008b000028141000089be001e80fb00ea00b900f1
:1008c000e6004000c0052100008040001001be008d
:1008d0001e80fb00ea00b9008080e800c00521000e
:1008e000008040001000be00800f5100818f590031
:1008f0000e003a001e80fb00ea00b900800078007c
:10090000c0052100008040001000780000000100b8
:100910001e80fb00ea00b90080007800200621005c
:10092000008140006000b8000089be001e4fe80052
:100930001e4078000004e000caff32000108a90050
:100940000080fa003400f9003200f9004f03be00c5
:100950004f02be004f01be004f00be003600f9003e
:10096000004006000040da000000fe008001780030
:1009700002003700815978000201e9000200e0001e
:08098000fcff3a000000060034
:020000040000fa
:100988000200fa00000f78001e007800e40f500003
:100998003e003200e40f500009003e00e10f500015
:1009a80010003200e10f50007e003900e20f5000c5
:1009b8001a003200e30f5000260032007a00370098
:1009c800e60f50004d003200e60f50003d003900a0
:1009d800e70f500057003200e80f50006300320064
:1009e80071003700207380004a00de00614060001b
:1009f8000004a200614060000080fb00610060000c
:100a08004a00dd0022738000f1bf2f0081006100e1
:100a18000100700020738800630037002073800095
:100a28004b00de00614060000004a20061406000ed
:100a38000080fb00610060004b00dd002273800035
:100a4800f17f2f0081006100010070002073880091
:100a580055003700207380004200de0061406000ce
:100a68000004a200614060000080fb00610060009b
:100a78004200dd0022738000b1ff2f008100610079
:100a88000100700020738800470037002073800041
:100a98004300de00614060000004a2006140600085
:100aa8000080fb00610060004300dd0022738000cd
:100ab80071ff2f0081006100010070002073880021
:100ac80039003700a07280004400de0061406000f9
:100ad8000004a200614060000080fb00610060002b
:100ae8004400dd00a2728000f1fe2f008100610049
:100af80001007000a07288002b003700a0728000ef
:100b08004500de00614060000004a2006140600012
:100b18000080fb00610060004500dd00a2728000db
:100b2800f1fd2f008100610001007000a0728800b3
:100b38001d003700a07280004600de0061406000a2
:100b48000004a200614060000080fb0061006000ba
:100b58004600dd00a2728000f1fb2f0081006100d9
:100b680001007000a07288000f003700a07280009a
:100b78004700de00614060000004a20061406000a0
:100b88000080fb00610060004700dd00a272800069
:100b9800f1f72f008100610001007000a072880049
:100ba80001003700000000000080fa000000060085
:020000040000fa
:100bb8000200fa000000eb00000f78000000eb00d4
:100bc800000f78007f0037001e0078000000e0006a
:100bd80003003a00438ea800224ea90043cea90084
:100be8001e007800e10f500003003a00438ea90070
:100bf800224ea80043cea9001e007800e20f500044
:100c080003003a00438ea900224ea90043cea80053
:100c18001e0078000000e00006003a001072800014
:100c2800610060000000e0000200320010c3b30061
:100c3800680037001e007800e10f500006003a00f7
:100c480010728000610060000000e00002003200c5
:100c580020c3b3005f0037001e007800e20f500089
:100c680006003a0010728000610060000000e00099
:100c78000200320030c3b300560037001e0078006f
:100c88000000e00006003a00107380006400600075
:100c98000000e0000200320040c3b3004d003700fe
:100ca8001e007800e10f500006003a001073800023
:100cb800640060000000e0000200320050c3b3008e
:100cc800440037001e007800e20f500006003a008a
:100cd80010738000640060000000e0000200320031
:100ce80060c3b3003b0037001e0078000000e0003e
:100cf80006003a0010718000610060000000e0000a
:100d08000200320070c3b300320037001e007800c2
:100d1800e10f500006003a00107180006100600089
:100d28000000e0000200320080c3b3002900370051
:100d38001e007800e20f500006003a001071800093
:100d4800610060000000e0000200320090c3b300c0
:100d5800200037001e0078000000e00006003a007e
:100d680010718000620060000000e00002003200a4
:100d7800a0c2b300170037001e007800e10f500032
:100d880006003a0010718000620060000000e00078
:100d98000200320000c3b3000e0037001e007800c6
:100da800e20f500006003a001071800062006000f7
:100db8000000e0000200320030c2b3000500370036
:100dc8001e0fe8001e007800e20f50007eff36007c
:0c0dd80080c5b3000080fa000000060097
:020000040000fa
:100de4000800fa00d2010700100020007300070079
:100df400400ea800604ea800200ea800202ea800d7
:100e0400418ea900204ea90041cea9004e0ea90092
:100e14006e4ea9002e0ea9002e2ea9004f8ea900f9
:100e24002e4ea9004fcea9000000eb00000f780061
:100e34000000eb00100798005eff07004047980091
:100e4400010037001e0fe800300620009e007800e5
:100e5400808f5000fbff340056ff07005047980076
:100e6400de4090004e40900080cf500016003a00c3
:100e7400010037001e0fe800703e20009e0078003d
:100e8400808f5000fbff34004aff07006047980042
:100e9400ee4090004e40900080cf50000a003a008f
:100ea4006e4090000b000700ee40900071479800e0
:100eb400010037001e0fe800f07022009e00780049
:100ec400808f5000fbff34000000eb00000f78001f
:040ed400d9ff37000b
:020000040000fa
:100ed8000200fa00004f78001e00fb00ea0f5000e5
:100ee80007003200ed0f500003003200e80f5000f9
:100ef8000a0032000e0037007a0107002c00370084
:100f080002d0bf000004e00002003a00c20107005e
:100f180027003700b501070025003700dd0007006e
:100f280000c2b300eaff0700da000700200037001c
:100f380010002000203088001e00fb004030880090
:100f4800803e2000bf01070003d0bf000040e8003a
:100f580003f0b70003d0bf00f04f500013003a0071
:100f68000370ef0002d0bf000004e00008003a0060
:100f78000426ef00000c20004030880080bb2000d1
:100f8800b001070010c0b30002f0b7000800370036
:100f98000426ef00000820004030880080bb2000b5
:100fa800a80107000270ef000100370000000000f0
:080fb8000080fa0000000600b1
:020000040000fa
:100fc0000200fa00000f78001e007800e10f5000c8
:100fd00017003200e10f500003003900e20f50000b
:100fe0002500320027003700a20020008000eb001f
:100ff000c00521005dfe0700204280000000a00027
:101000000010a1000020a100204288000108a900d2
:101010000a21ef00007d20007008880000012a00ee
:10102000900888002108a80010c0b30016003700ff
:10103000a20020008000eb00c00521004bfe07004d
:101040000042800000c0a10000d0a10000e0a0008c
:10105000004288000068a9000021ef00000028007d
:101060001008880020002800200888002068a800b8
:1010700010c0b300040037002108a90010c0b3005d
:10108000010037000040eb000080fa00000006007d
:020000040000fa
:101090000200fa00000f78001e007800e40f5000f4
:1010a0001a003200e40f500009003e00e10f50002a
:1010b00010003200e10f50001e003900e20f500016
:1010c0000e003200e30f50000e0032001a0037000d
:1010d000e60f500011003200e60f50000d003900fd
:1010e000e70f50000f003200e80f50000f003200f1
:1010f00011003700654ea8000f003700656ea8008c
:101100000d003700644ea8000b003700646ea80085
:1011100009003700548ea8000700370054aea8001d
:101120000500370054cea8000300370054eea80095
:1011300001003700000000000080fa0000000600f7
:020000040000fa
:101140000200fa00000f78001e007800e40f500043
:101150001a003200e40f500009003e00e10f500079
:1011600010003200e10f50001e003900e20f500065
:101170000e003200e30f50000e0032001a0037005c
:10118000e60f500011003200e60f50000d0039004c
:10119000e70f50000f003200e80f50000f00320040
:1011a00011003700614ea9000f003700616ea900e1
:1011b0000d003700604ea9000b003700606ea900db
:1011c00009003700508ea9000700370050aea90073
:1011d0000500370050cea9000300370050eea900eb
:1011e00001003700000000000080fa000000060047
:020000040000fa
:1011f000001000000200000080000000021000004b
:1012000002000000800000005c1000000a000000e6
:101210008000000004100000580000008200000060
:1012200000000000000000000000000000000000be
:1012300000000000457870006c6f7200657220003d
:101240003136200044656d006f000000507265006b
:101250007373200053332000746f2000636f6e009f
:101260007400000054696d0065203000303a2000a1
:1012700030303a00203030002000000020506f0055
:1012800074203d0020302e00303020005664630072
:0c12900020000000000000000000000032
:020000040000fa
:10129c000200fa0003d0bf000004e0001a003a007c
:1012ac0002d0bf000004e00008003a000426ef0062
:1012bc00000c20004030880080bb2000e0000700bc
:1012cc0010c0b30002f0b700060037000426ef0090
:1012dc00000820004030880080bb2000d8000700a8
:1012ec000270ef000040eb00004f78000200370066
:1012fc000f0007001e4fe8001e407800ee4f500014
:10130c00fbff36000800370003d0bf000040e900a7
:10131c0003f0b7000426ef000001200040308800e5
:10132c00803e2000c60007000080fa000000060086
:020000040000fa
:10133c000000fa000426ef00400120004030880035
:10134c00803e2000be00070003d0bf000040e80034
:10135c0003f0b70003d0bf00f04f500012003a006a
:10136c000370ef0002d0bf000004e00008003a0058
:10137c000426ef00000c20004030880080bb2000c9
:10138c00af00070010c0b30002f0b7000600370032
:10139c000426ef00000820004030880080bb2000ad
:1013ac00a70007000270ef000080fa0000000600a2
:020000040000fa
:1013bc000000fa00f03f2000103088003038280080
:1013cc0000308800100020006030880000e224000b
:1013dc009b00070000e22400990007000426ef00a0
:1013ec0080032000403088008020250094000700f6
:1013fc000426ef00c000200040308800803e200012
:10140c008f0007000426ef006000200040308800a9
:10141c0080bb20008a0007006400070010c0b300e6
:08142c000080fa000000060038
:020000040000fa
:101434000200fa00000f78001e007800e20f50004e
:101444000e003200e20f500005003e000000e000f4
:1014540010003200e10f5000060032000e00370089
:10146400e30f500007003200e40f50000700320081
:101474000900370030cea80007003700212ea8004d
:101484000500370050eea8000300370031aea80075
:1014940001003700000000000080fa000000060090
:020000040000fa
:1014a4000600fa0020c0b300004f780060c4b30007
:1014b4001047980070c5b30020479800207420009e
:1014c400200798002e0090009e4090002e4190002e
:1014d4009e4178000148780002487800034878006b
:0814e4000080fa000000060080
:020000040000fa
:1014ec000000fa0002d0bf000004e00006003a0041
:1014fc000426ef00000820004030880080bb20004c
:10150c004f000700050037000426ef00000c2000f8
:10151c004030880080bb2000490007000370ef00ba
:08152c000080fa000000060037
:020000040000fa
:101534000000fa007000200000ff07008000200077
:10154400fefe070070002000d0fe0700800020008f
:10155400cefe070010002000b5ff07004001200068
:101564000400070094ff0700cdff07000080fa0085
:04157400000006006d
:020000040000fa
:101578000200fa00000f78001e007800eb0f500000
:1015880005003200f40f500006003a004f2ea80064
:1015980010c0b300040037000f6ea80010c0b300dd
:1015a800010037000040eb000080fa000000060050
:020000040000fa
:1015b8000000fa000426ef001000200040308800e8
:1015c80080bb20001f0007000426ef002000200039
:1015d8004030880080bb20001a0007000270ef002e
:0c15e8000370ef000080fa000000060015
:020000040000fa
:1015f4000200fa000040eb00004f780002003700c0
:1016040025ff07001e4fe8001e407800ef4f5000f2
:0c161400fbff36000080fa00000006001a
:020000040000fa
:101620000200fa000040eb00004f78000200370093
:1016300042ff07001e4fe8001e407800ef4f5000a9
:0c164000fbff36000080fa0000000600ee
:020000040000fa
:10164c000200fa00000f7800010037001e0fe900bd
:10165c001e0078000000e000fcff3a000080fa0059
:04166c000000060074
:020000040000fa
:02000004000af0
:04afe000cfff00009f
:020000040000fa
:02000004000af0
:04afe400ffff00006b
:020000040000fa
:02000004000af0
:04afe8007fff0000e7
:020000040000fa
:02000004000af0
:04afec00b9ff0000a9
:020000040000fa
:02000004000af0
:04aff00078ff0000e6
:020000040000fa
:02000004000af0
:04aff400ffff00005b
:00000001FF
