:020000040000fa
:080000000002040000000000f2
:020000040000fa
:10000800ee040000ee040000ee040000ee04000020
:10001800ee040000ee040000ee040000ee04000010
:10002800ee040000ee040000ee040000ee04000000
:10003800ee040000ee040000ee040000ee040000f0
:10004800ee040000ee040000ee040000da020000f6
:100058001c030000ee040000ee040000ee040000a3
:10006800ee040000ee040000ee040000ee040000c0
:10007800ee040000ee040000ee040000ee040000b0
:10008800ee040000ee040000ee040000ee040000a0
:10009800ee040000ee040000ee040000ee04000090
:020000040000fa
:10040000af2921000eff2c000e0188000000000023
:10041000000020000000e000020032000001200087
:10042000200288000c0007008094200001002000ba
:100430000f000700000020000000e0000200320072
:100440000000020000000000b404020000000000f0
:100450000040da000000fe00200020000000e00064
:100460000200320010002000900188000000060009
:10047000a1028800800078000000eb001a0037001d
:10048000e280400054a0b4009101ba00e280400034
:1004900054a0b4009102ba00e280400054a0b4001d
:1004a0000002eb00472bde00f507b200a601880032
:1004b000602ce10008003a000049eb000201e8006e
:1004c000020039003420ec0002f0a0008301e900b2
:1004d000f9ff3e00040037006128e100010032000e
:1004e0000082eb00040007001101ba000200e000e6
:1004f000e3ff3a000000060004d0a300e20f490029
:100500001c003900810278003549ba000201e80078
:10051000020039003420ec0002f0a0008301e90061
:100520000f0032002549ba000201e800020039003c
:100530003420ec0002f0a0008301e9000800320042
:100540000400e0000600320015c9ba000201e8000c
:10055000020039003420ec0002f0a0008301e90021
:100560008180e80054a0b4000300e000e2ff3a00fc
:10057000000006009102ba00055978008301e900e5
:10058000f7ff3200c82ade00055978008301e90030
:10059000f3ff32000400e000f1ff320011d9ba008d
:1005a000eeff37002e0704000000000000000400ea
:1005b00000000000809fbe00821f780003d0bf00b3
:1005c000e14f50000a003a00f00220002602e3004a
:1005d00005003a0010c0b30002f0b7000370ef004e
:1005e00021e2a900020037000370ef000270ef0063
:1005f000a00220002602e30003003a0010c0b3006e
:1006000003f0b700010037000370ef0000808000a6
:100610003211800041002100808040008248780033
:100620000000e800008088000168a9004f01780000
:100630004f00be00004006000188a90000400600ef
:10064000a0032000303a8800f0f32f004427b600c2
:1006500000fe2f004427b6004827ef0040a7a9005e
:10066000a109200032002000800720003374200000
:10067000804978008149780082497800103a8000ea
:100680007105200012002000600420002374200067
:10069000804978008149780082497800020027006b
:1006a00001002300133a800003006100810f500015
:1006b000fcff3a0001022000123a80000280600034
:1006c000fdff32000000060021e2a90021a2a900de
:1006d0002182a9002162a800f0cf2f002022b600bd
:1006e00020e2a90020c2a90020a2a9002062a9003e
:1006f00090ff2f002022b6002002a90060a6200053
:100700004011880023e2a90023c2a90023a2a90066
:100710002362a9002342a9002322a9002302a900e1
:10072000101180000060a0000070a100101188006e
:1007300022a2a9002282a9002262a9002242a900c5
:100740002222a9002202a900004024007042880051
:100750000188a9002188a8000168a9002168a800d3
:1007600000fc2f008206b6000000a00010348800b4
:1007700000f82f00c406b6008001b30020368800c0
:1007800021e2a8002342a8000000060000000600a5
:1007900021e2a8000000fb00f300070000000600b3
:1007a0000000eb00010820000000e00004003a0017
:1007b000438ea800224ea90043cea9000c003700aa
:1007c000e10f500004003a00438ea900224ea80019
:1007d00043cea9000c003700e20f500004003a009d
:1007e000438ea900224ea90043cea8000c0037007a
:1007f0000000e00004003a001373800003816000f1
:100800000d00320040003700e10f500004003a00b4
:1008100013738000038160000c0032003c0037003d
:10082000e20f500004003a0013738000038160005f
:100830000b003200380037000000e00003003a00ef
:10084000624eab000b00320035003700e10f500064
:1008500003003a00624eab000b003200320037005a
:10086000e20f500003003a00624eab000b00320072
:100870002f0037000000e00003003a00220eab001a
:100880000b0032002c003700e10f500003003a004b
:10089000220eab000b00320029003700e20f50009f
:1008a00003003a00220eab000b0032002600370096
:1008b0000000e00003003a00222eab000d003200e1
:1008c00023003700e10f500003003a00222eab0056
:1008d0002300320020003700e20f500005003a00ec
:1008e00080c5b300222eab001c00320030c2b30022
:1008f0001a0037000000e800e30f5000aaff3a009a
:1009000080c5b3001500370010c3b30013003700d3
:1009100020c3b3001100370030c3b3000f0037000d
:1009200040c3b3000d00370050c3b3000b003700c5
:1009300060c3b3000900370070c3b300070037007d
:1009400080c3b3000500370090c3b3000300370035
:10095000a0c2b3000100370000c3b30000000600ce
:100960000000e80090ff3700881f780060eea800c4
:10097000604ea800200ea800202ea800418ea900dd
:10098000204ea90041cea9006eeea9006e4ea9002e
:100990002e0ea9002e2ea9004f8ea9002e4ea900c2
:1009a0004fcea90026ff070047ff070080c5b30010
:1009b000004478000100370079ff0700884f50009d
:1009c000fdff320072ff070075ff0700884f5000df
:1009d000fdff3a0008407800f8ff37000040da00d9
:1009e0000000fe000a00fa0011002000b1bf9f00c5
:1009f000c0bf9f006a8057001f0207004fb89700d2
:100a00000080fa00000006000a00fa00e20f500021
:100a100020003e00b0948000e10f5000060032003c
:100a200080232000452320002323200004232000ce
:100a30000000e00004003a0080222000452220004f
:100a40002322200004222000060028001403630053
:100a500003003a000608780000002800140a70001d
:100a600013a8a30001003a0013a0a0000200780020
:100a7000050037001388a300feff32003102fb009f
:100a8000840a78000000e9000000e000f9ff3a0065
:100a90000800370033002000b3bf9f00c0bf9f0095
:100aa000d1bf9f00e2bf9f006a805700f40107009a
:100ab0006fb99700020078000080fa00000006007d
:100ac0000a00fa0051002000b1bf9f00c0bf9f0084
:100ad0006a805700ec0107005fb897000080fa00b9
:100ae00000000600889fbe0080047800c09480004b
:100af0000000e00004003a000e0007000084eb0054
:100b00000000e00008003500c89480000900e00003
:100b10000500320009004400060007000000e00064
:100b200001003d000084eb00080078004f04be0087
:100b300000000600800078000100e00003003a0099
:100b400000002000c0948800000005000080eb0039
:100b500002002000828f500002003e00c1948800f5
:100b60000000eb0000000600c12221000000370059
:100b7000889fbe008a1f78000004be00c900900054
:100b800069009000808f500005003900090078004e
:100b90001d0007008080eb000000e000160035001b
:100ba000084578004900900008587800c004980073
:100bb0001900780000b8a30004003a0000a8a300c0
:100bc00007003200ea4f540005003a00090078009f
:100bd000ad0007008080eb000000e00006003a0056
:100be00000c020001900600002003200490090009f
:100bf000e00498008a80fb00010078004f0578002f
:100c00004f04be0000000600889fbe008a1f7800c7
:100c100000047800c8009000680190000000eb001c
:100c2000828f50003d003900180078002200290012
:100c300002016000e20f5100070032000120240091
:100c40000000e00001003d0001202000008c700049
:100c50000080eb0031003700020026000200600037
:100c6000820f500009003a0038009000808f500039
:100c70000600390008007800830007008000780033
:100c80000080eb000100e00024003a001805780025
:100c900000c020000000650019003a00a804900080
:100ca0006002200008004000808f540014003a00c9
:100cb00000202000010020002c01070020049800e3
:100cc0000000e00005003a0029049800490498005b
:100cd0008904e80039049800080037000a60a00081
:100ce0000a0c780040049800012020008080400019
:100cf00031049800400c9800500c98000c0007003c
:100d0000280090005004980038009000600498007b
:100d100000002600180c70000000eb004f05780062
:100d20004f04be0000000600e07220009100370072
:100d3000881f7800482921001804e00003003a00c9
:100d4000f9ff070020c0b300004c78004f04780082
:100d500000000600889fbe000004780008007800ac
:100d6000490007008004780000042000180060009b
:100d700002003200280090008b0007000000eb000a
:100d800020049800384090000004e0000500350081
:100d90000000fb0013ff07000000e000010032002c
:100da0008084eb00181090000000e0000800320082
:100db00043ff07000000e000010032008084eb00e8
:100dc00018109000780007000000eb001014980045
:100dd00000082000180060000f003200a127210049
:100de0000000eb00d10f140005003a0000004000a5
:100df000c1272100008040000008eb0003003700fd
:100e00000000e800e80f5000f6ff3a000800780004
:100e1000650007000e003700000c780000c0eb00f2
:100e20003044980060022000080040002004980030
:100e30004004980050049800400c9800600498000a
:100e4000500c98007004980076004400000c980044
:100e5000090078004f04be0000000600889fbe0015
:100e6000c8282100f0045400480078000000e00089
:100e700001003200b7ff0700890f5400faff3a0063
:100e80004f04be0000000600889fbe008a1f780045
:100e9000000478000800e0000d003a00a8272100b7
:100ea000700544008004eb00580078000000e0006a
:100eb00004003200f4ff07000000e00001003d00e4
:100ec0008084eb008a0f5400f7ff3a0025003700ba
:100ed00000002200180060008004eb0021003200b6
:100ee000a80490000f00370009015100384090001d
:100ef0000000fb0089007800c3fe07000000e0004e
:100f000007003c002800900040049800600498000e
:100f1000500c98001890a0008084eb00110037005e
:100f20008084440048019000828f5400eeff390015
:100f300028009000400498009800780002c020002b
:100f40000281600001003a003800900001e8a3002f
:100f5000020032006004980001003700500c980035
:100f60008004eb00090078004f0578004f04be00b4
:100f700000000600010020000100e000090032002e
:100f8000010080000100e000060032008100e9005d
:100f90000100880081804000020080008100410043
:100fa00080087800000006000000e00032003200f7
:100fb0004002be00e50f5200e08f5a002e003600be
:100fc0000408a3002c003a00919480000100e00086
:100fd00002003200810f500004003100210098000f
:100fe000909488001700370082007800210190005b
:100ff0000200e00002003200800f5100faff3900c9
:101000001103be0086814000830f50001a00390092
:10101000808f510004003a008418430085904b00f3
:1010200001007800070037000200e00003003200f2
:1010300004024000840f51000f0039002200980084
:10104000a0009800a00090000100e0000a0032001b
:1010500010014000828f500007003a000229210051
:101060000009eb001001be00311841002190490039
:10107000a10090002100980000000600889fbe009b
:101080008a9fbe000004be00819480000100e00041
:1010900002003200010078000f00370091948000b8
:1010a0002029210005003700b10f5400a18f5c00fa
:1010b0002b00360064804000a10090000100e00099
:1010c000f9ff3a0012003700b20f5400a28f5c0003
:1010d0002300360064004100100178000200e000a7
:1010e000f9ff3a0011017800919480002029210035
:1010f00005003700b10f5400a18f5c0018003600c6
:1011000064804000a1009000828f5000f9ff3a00f7
:101110006a9480007b948000880f5500898f5d0061
:10112000010031000805be000a00be0046000700ad
:101130000000e00006003a00880f5500898f5d002e
:10114000060032008b05d1000a85d300f2ff37007c
:101150000a98be0094ff0700cbff37000000eb00a9
:101160004f05be004f04be0000000600889fbe0071
:101170000002be0065004000e080480000037800e7
:101180000600a10081017800060178000204be007b
:101190008000eb00840f5400858f5c002700360030
:1011a000e50f5400e08f5c0002003e006800200064
:1011b000090020000800be00b0ff07008000eb001f
:1011c0000000e0001d00320090007800a4ff2f0016
:1011d000f5ff2f0031014200a1814a00880f510024
:1011e000898f590003003100a102900005087800a2
:1011f000080037000881400002087800a101900033
:1012000023019800100178003119140021911c006d
:101210008888be00100178000000eb000200e000aa
:1012200004003200a20190000300e000010032003f
:101230006400410080948800e48040000100780050
:101240004f04be00000006000001be008000eb005d
:101250000200e000060034000200780021fe0700d2
:1012600080007800e18f400001003a008000eb0030
:10127000010078000000060000c0da00000006004f
:1012800000c0da000000060000c0da00000006001e
:020000040000fa
:1012900004100000000200008000000000100000a8
:1012a000040000008000000004120000880000001c
:1012b0008200000001000000002a12002b122a0008
:1012c000122a12002a122a00121a1200000000002c
:1012d000000000000000000000000000000000000e
:1012e00000000000000000000002080001015200a0
:1012f00012531200521252001252120052124200a5
:1013000012000000000000000000000000000000cb
:1013100000000000000000000000000000000200cb
:10132000080202007a127b00127a12007a127a0006
:10133000127a12006a120000000000000000000093
:10134000000000000000000000000000000000009d
:101350000000000004122c001254120000000000d3
:1013600000000000000000000000000094120000d7
:1013700002000000800000008c1200000400000049
:101380008200000006000000000000009012000033
:10139000040000008000000096120000020000001f
:1013a000820000000100000098120000020000000e
:0813b0008000000000000000b5
:020000040000fa
:02000004000af0
:04afe000cfff00009f
:020000040000fa
:02000004000af0
:04afe400ffff00006b
:020000040000fa
:02000004000af0
:04afe8007fff0000e7
:020000040000fa
:02000004000af0
:04afec005dff000005
:020000040000fa
:02000004000af0
:04aff00078ff0000e6
:020000040000fa
:02000004000af0
:04aff400ffff00005b
:00000001FF
