:020000040000fa
:080000000002040000000000f2
:020000040000fa
:100008001e0400001e0400001e0400001e04000060
:100018001e0400001e0400001e0400001e04000050
:100028001e0400001e0400001e0400001e04000040
:100038001e0400001e0400001e0400001e04000030
:100048001e0400001e0400001e040000de02000062
:10005800200300001e0400001e0400001e0400000f
:100068001e0400001e0400001e0400001e04000000
:100078001e0400001e0400001e0400001e040000f0
:100088001e0400001e0400001e0400001e040000e0
:100098001e0400001e0400001e0400001e040000d0
:020000040000fa
:100400002f2b21000eff27000e01880000000000a6
:10041000000020000000e000020032000001200087
:10042000200288000c00070000c720000100200007
:100430000f000700000020000000e0000200320072
:10044000000002000000000006040200000000009e
:100450000040da000000fe00400020000000e00044
:1004600002003200002020009001880000000600f9
:10047000a1028800800078000000eb001a0037001d
:10048000e280400054a0b4009101ba00e280400034
:1004900054a0b4009102ba00e280400054a0b4001d
:1004a0000002eb00472bde00f507b200a601880032
:1004b000602ce10008003a000049eb000201e8006e
:1004c000020039003420ec0002f0a0008301e900b2
:1004d000f9ff3e00040037006128e100010032000e
:1004e0000082eb00040007001101ba000200e000e6
:1004f000e3ff3a000000060004d0a300e20f490029
:100500001c003900810278003549ba000201e80078
:10051000020039003420ec0002f0a0008301e90061
:100520000f0032002549ba000201e800020039003c
:100530003420ec0002f0a0008301e9000800320042
:100540000400e0000600320015c9ba000201e8000c
:10055000020039003420ec0002f0a0008301e90021
:100560008180e80054a0b4000300e000e2ff3a00fc
:10057000000006009102ba00055978008301e900e5
:10058000f7ff3200c82ade00055978008301e90030
:10059000f3ff32000400e000f1ff320011d9ba008d
:1005a000eeff3700e404040000000000700a0400bd
:1005b000000000000000040000000000809fbe005a
:1005c000821f780003d0bf00e14f50000a003a00bc
:1005d000f00220002602e30005003a0010c0b3003c
:1005e00002f0b7000370ef0021e2a900020037001b
:1005f0000370ef000270ef00a00220002602e3006b
:1006000003003a0010c0b30003f0b7000100370048
:100610000370ef0000808000321180004100210053
:1006200080804000824878000000e8000080880058
:100630000168a9004f0178004f00be00004006008d
:100640000188a90000400600a0032000303a88007d
:10065000f0f32f004427b60000fe2f004427b60019
:100660004827ef0040a7a900a10920003200200080
:100670008007200033742000804978008149780089
:1006800082497800103a8000710520001200200095
:10069000600420002374200080497800814978009c
:1006a000824978000200270001002300133a8000ed
:1006b00003006100810f5000fcff3a00010220009e
:1006c000123a800002806000fdff32000000060048
:1006d00021e2a90021a2a9002182a9002162a8008b
:1006e000f0cf2f002022b60020e2a90020c2a900ee
:1006f00020a2a9002062a90090ff2f002022b600ae
:100700002002a900501820004011880023e2a9000f
:1007100023c2a90023a2a9002362a9002342a900a1
:100720002322a9002302a900101180000060a0006c
:100730000070a1001011880022a2a9002282a90045
:100740002262a9002242a9002222a9002202a900b5
:1007500000402400704288000188a9002188a80078
:100760000168a9002168a80000fc2f008206b600dd
:100770000000a0001034880000f82f00c406b60066
:100780008001b3002036880021e2a8002342a8009f
:1007900000000600881f78000030ef0031002100c3
:1007a00005202000818242000003eb008041eb0025
:1007b00003417800c4c3b300000478008368780064
:1007c000844f5100050032000204e00003003200b3
:1007d00098034300824b78000603e800858f5000a1
:1007e000f6ff3a004f047800000006000000060003
:1007f00021e2a800801f7800c0c62800801f780072
:100800007f000700e487570000000600881f78007b
:100810008dff0700aeff07000000eb000044eb0077
:100820000250e200040032002100210088487800d4
:10083000d8ff0700faff3700ffff37000040da005b
:100840000000fe000a00fa0011002000b1bf9f0066
:10085000c0bf9f006a805700130407004fb897007d
:100860000080fa00000006000a00fa00e20f5000c3
:1008700020003e0070958000e10f5000060032001d
:100880008023200045232000232320000423200070
:100890000000e00004003a008022200045222000f1
:1008a00023222000042220000600280014036300f5
:1008b00003003a000608780000002800140a7000bf
:1008c00013a8a30001003a0013a0a00002007800c2
:1008d000050037001388a300feff32003102fb0041
:1008e000840a78000000e9000000e000f9ff3a0007
:1008f0000800370033002000b3bf9f00c0bf9f0037
:10090000d1bf9f00e2bf9f006a805700e803070045
:100910006fb99700020078000080fa00000006001e
:100920000a00fa0051002000b1bf9f00c0bf9f0025
:100930006a805700e00307005fb897000080fa0064
:1009400000000600889fbe0080047800809580002b
:100950000000e00004003a000e0007000084eb00f5
:100960000000e00008003500889580000900e000e4
:100970000500320009004400060007000000e00006
:1009800001003d000084eb00080078004f04be0029
:1009900000000600800078000100e00003003a003b
:1009a0000000200080958800000005000080eb001a
:1009b00002002000828f500002003e0081958800d6
:1009c0000000eb0000000600889fbe0000047800d5
:1009d000010078008204780088017800090178001d
:1009e00011002000ef000700890f500001003200c5
:1009f0000004eb00080078004f04be000000060071
:100a00000000fa00e88157004fb99700c122210089
:100a1000404e2000020007000080fa00000006009f
:100a20006200fa00889fbe008a1f780000057800e7
:100a300081047800020478008300780080f92f0098
:100a40000f004000510207009a979f00a9979f004e
:100a50000000eb00b09f9f001885fb008a04fb009c
:100a60000a05ea004f55de0050022000808f540036
:100a70000d003200e10f55000b003a000a0178002a
:100a8000880078002f9097009f9197000300010045
:100a9000a0979f000000e0008e0032003f98970072
:100aa0000000e800b09f9f000a04440050022000ac
:100ab000808f5400040032000900e000e6ff3a0095
:100ac0003f989700840037000000eb00909f9f0044
:100ad000809f9f00f0979f00e0979f00d0979f0016
:100ae000c0979f0007003700012a21000100500035
:100af0000000400041292100808040005f9897005d
:100b000011007000d09f9f008804780009047800cd
:100b1000384578008a00fb00002a21000601070002
:100b20000000e000f0ff3a00a1c2b300814f550081
:100b30000e003a00cf8897000180e900c08f9f0027
:100b400010007800c09f9f000000e00005003d00fd
:100b50000000ea00c09f9f005f9897000020a0005f
:100b6000d09f9f000904e8000f003700c09f9f003e
:100b70000000eb0005003700f2ff2700820f500055
:100b800002003200ea00b900008040000904780049
:100b900088047800b900fb000103b100e98f500020
:100ba000f5ff3600c09f9f00e0c2b300984f1000d1
:100bb000020032000080eb0019003700a0c2b30031
:100bc000d84f100007003a00cf8897000180e90055
:100bd000c08f9f0010007800a09f9f000804e800cd
:100be000100037000000eb00a09f9f0088007800f5
:100bf00005003700f3ff2700830f5000020032008a
:100c0000ea00b90000004100010478008800780083
:100c10003101fb000203b100e90f5100f5ff36007e
:100c2000a09f9f00984478008900fb00c028210005
:100c3000c10007000000e000020032000804e800e4
:100c4000010037008044eb00c97f9f0080c6b300dd
:100c500080cf540004003a0098cf14000a003a00f4
:100c60006640500006003700c0c6b30080cf540075
:100c700005003a0098cf140003003a006540400098
:100c8000c07f9f000804e8001801fb00e3fb2f0071
:100c90008f81410081f92f008f804000a0f92f0043
:100ca0000f004000100007000000e00009003a00bb
:100cb000e1fb2f008f804000a0f92f000f004000c3
:100cc000f60007000000e000020035000804e8001c
:100cd00061ff37000080eb004f0578004f04be0035
:100ce0000080fa0000000600889fbe008a1f78007e
:100cf0000004780030c5b300804f51000800320076
:100d000030c7b300804f51000500320051c2b3001c
:100d100078009000814f510017003a00140037000e
:100d20001180e90080087800100578006a049800b6
:100d3000d80c90000900e00004003d000a00780093
:100d40008900070080047800070037000901780057
:100d50008000eb000a007800660007000000e00059
:100d6000010032008a045000190c98000900370075
:100d70008081410004003700808141000204e000ce
:100d800001003a0001417800824978000000e80043
:100d9000700498000000eb004f0578004f04be007f
:100da00000000600889fbe008a9fbe008c9fbe0088
:100db0008e1f780000067800010478000200780099
:100dc000830478008881b900020778000e00e000f3
:100dd000420032000800e000410032008e05780039
:100de000c900900069009000808f50000400390015
:100df00009007800620007000000e00029003500cb
:100e000000402000190060000a0032000b01780049
:100e1000a10020000c007800360007008006780052
:100e20000d00e00006003200610516000a8546004c
:100e3000040037000b0578008006eb000100370046
:100e40000b05780049009000e90090008080500078
:100e50008a8f500002003100010578008006eb0007
:100e60000a0178008c0078002c0007008a85550064
:100e7000490090000a004000c00498000d00e00006
:100e80000400320009007800a60107000000e0001d
:100e900004003a000b00e000020032000a0646009f
:100ea000cfff3700008020001900600002003200f0
:100eb000090078009b01070000c0200019006000b5
:100ec0000200320049009000e00498008b055700b2
:100ed000110009008885d800010037000000eb00f0
:100ee0004f0778004f06be004f05be004f04be00fe
:100ef0000000060003003700b0cf100005003200ec
:100f00000201e900800178000200e000faff3a00e7
:100f10000000050003007800000006008001780052
:100f200002003700b15978000201e9000200e00038
:100f3000fcff3a0000000600020037000304e00056
:100f4000060032000001780002007800b04178000d
:100f500081cf5100f9ff3a00010037000001eb009a
:100f6000020078000000060080007800010178008f
:100f70003104e000fdff3a000000510000000600cf
:100f8000889fbe008a1f780000047800c800900087
:100f9000680190000000eb00828f50003c00390097
:100fa000180078002200290002016000e20f5100c1
:100fb00007003200012024000000e00001003d0095
:100fc00001202000008c70000080eb003000370012
:100fd0000200260002006000820f500009003a0063
:100fe00038009000808f500006003900080078001b
:100ff0004c010700800078000080eb000100e00059
:1010000023003a001805780000c0200000006500a9
:1010100018003a00a8049000600220000800400078
:10102000808f540013003a0000202000ea010700de
:10103000200498000000e00005003a002904980010
:10104000490498008904e800390498000800370032
:101050000a60a0000a0c78004004980001202000db
:101060008080400031049800400c9800500c98009b
:10107000ca00070028009000500498003800900033
:101080006004980000002600180c70000000eb00bf
:101090004f0578004f04be00000006000400fa006f
:1010a000889fbe008a9fbe008c1f780000047800d5
:1010b00001067800f80d90007800900080855500ba
:1010c000080890008085550018089000808555001c
:1010d00028089000808555003808900080855500cc
:1010e00048089000808555000002220090bf9f00b4
:1010f00000032300a0bf9f00081090000028a30059
:1011000015003a000b00e000130034000b057800d6
:101110008a047800e20f5500010036002900200003
:10112000c801900009017800ee8057005800900037
:1011300003000100500498000000e0008c00320021
:101140006808900009004000600c980009055500ef
:101150004240a900eeff3c00780190000200e00050
:101160000c003400c80190008c00780058009000fa
:1011700003000100500498008080eb000000e000b4
:101180007c003200e8089000780090000080400069
:10119000600c9800880c90000900e00011003400f9
:1011a00009057800e28f5400010036002a00200073
:1011b000c80190000a017800ec80570058009000a8
:1011c00003000100500498000000e00068003200b5
:1011d000680890000a004000600c98008a8454005f
:1011e000edff3700180990000200e0000c00340009
:1011f000c8019000e8009000580090000300010032
:10120000500498008080eb000000e000590032009c
:10121000e80890001808900000804000600c9800da
:10122000a80c90000900e0001100340009057800c6
:10123000e28f5400010036002a002000c80190000f
:101240000a017800ec80570058009000030001006c
:10125000500498000000e00045003200680890004b
:101260000a004000600c98008a845400edff3700ab
:10127000380990000200e0000e003400e800900001
:101280001808900080804000c8019000580090002d
:1012900003000100500498008080eb000000e00093
:1012a00034003200e80890003808900000804000c8
:1012b000600c9800c80c90000900e0001100340098
:1012c00009057800e28f5400010036002a00200052
:1012d000c80190000a017800ec8057005800900087
:1012e00003000100500498000000e00020003200dc
:1012f000680890000a004000600c98008a8454003e
:10130000edff3700081090008000eb000028a300dc
:10131000180032000b00e000160034008b04780047
:1013200009057800e28f5400010036002a002000f1
:10133000c80190000a017800ee8057005800900024
:1013400003000100500498000000e0000800320093
:10135000680890000a004000600c98008a845400dd
:101360004240a900eeff3c008000eb000100370086
:101370008080eb00010078004f0678004f05be002a
:101380004f04be000080fa0000000600010878004b
:101390000000060000a720009d003700881f78008d
:1013a000a82a21001804e00003003a00f9ff070012
:1013b00020c0b300004c78004f0478000000060005
:1013c000889fbe00000478000800780055000700e0
:1013d0008004780000042000180060000200320041
:1013e00028009000970007000000eb002004980000
:1013f000384090000004e000050035000000fb00cc
:1014000010fd07000000e000010032008084eb00c6
:10141000181090000000e0000800320040fd0700b6
:101420000000e000010032008084eb001810900002
:10143000840007000000eb00101498000008200052
:1014400018006000150032000001eb006000b800d9
:101450000202d000c327210003024200940f1400af
:1014600005003a00000040008180480000804100f3
:101470000008eb000600370061004000e0804800f3
:101480000201e800e80f5000e08f5800f0ff3a003a
:10149000080078006b0007000e003700000c780091
:1014a00000c0eb00304498006002200008004000bb
:1014b000200498004004980050049800400c9800c4
:1014c00060049800500c9800700498007600440066
:1014d000000c9800090078004f04be0000000600d0
:1014e000881f78000004eb006140b800e2ff2f0085
:1014f000f3ff2f00f2000700a22821008000410026
:10150000110078000000e00001003200acff07008d
:101510000804e800e80f5400f3ff3a004f04780095
:1015200000000600889fbe00000478000800e0006c
:101530000f003a008004eb008800d000c027210093
:1015400000804000100078000000e000040032003d
:10155000f4ff07000000e00001003d008084eb0084
:101560000804e800e80f5400f3ff3a0025003700b4
:1015700000002200180060008004eb00210032000f
:10158000a80490000f003700090151003840900076
:101590000000fb0089007800b3fc07000000e000b9
:1015a00007003c0028009000400498006004980068
:1015b000500c98001890a0008084eb0011003700b8
:1015c0008084440048019000828f5400eeff39006f
:1015d00028009000400498009800780002c0200085
:1015e0000281600001003a003800900001e8a30089
:1015f000020032006004980001003700500c98008f
:101600008004eb00090078004f04be0000000600d3
:10161000010020000100e00009003200010080000c
:101620000100e000060032008100e90001008800ae
:101630008100d00002008000828040008008780095
:10164000000006000000e0002f003200c00178001a
:10165000e38f51002c0036000308a3002a003a0053
:10166000419580000100e00002003200810f50002f
:1016700004003100110098004095880016003700e2
:1016800082007800110190000200e00002003200a8
:10169000800f5100faff3900110278008482400067
:1016a000850f500018003900808f520003003a0067
:1016b0008308420001007800070037000200e000c4
:1016c0000300320083014000830f51000e003900f7
:1016d0001200980090009800900090000100e00037
:1016e0000900320010014000828f500006003a00cd
:1016f000622a21000009eb00100178001108410066
:10170000910090001100980000000600889fbe0024
:1017100000047800319580000100e00002003200f2
:10172000010078000d00370041958000802a2100db
:1017300004003700910f5400250036000180e800b6
:10174000910090000100e000faff3a00100037001d
:10175000920f54001e0036000280e800100178004d
:101760000200e000faff3a00110178004195800084
:10177000802a210004003700910f54001400360025
:101780000180e80091009000828f5000faff3a003b
:1017900069958000888f540001003100880478002a
:1017a00009007800360007000000e00004003a005d
:1017b000888f5400050032008904d100f5ff3700fe
:1017c000091878009fff0700d2ff37000000eb00e8
:1017d0004f04be0000000600881f7800630440002c
:1017e0000800a1008000eb00800f540021003600ab
:1017f000e30f540001003e0048002000080078007c
:10180000c2ff07008000eb000000e000190032007a
:10181000900078009101780064815100880f510098
:101820000300310011019000020878000700370022
:10183000088140000208780091019000130198008f
:101840001001780011091400880878001001780050
:101850000000eb000200e000040032009201900062
:101860000300e000010032000280e80030958800ab
:101870008180e800010078004f0478000000060035
:10188000800078000000eb000100e000050034005b
:10189000010078002bfc0700e10f400001003a0036
:1018a0000000eb000000060000c0da0000000600a7
:1018b00000c0da000000060000c0da0000000600e8
:1018c000020ab900001bb9000200b8008100420002
:0818d000810043000000060046
:020000040000fa
:0818d800257300000000000070
:020000040000fa
:1018e0000410000000020000800000000010000052
:1018f00004000000800000008c1200001a000000ac
:1019000082000000686a6c00747a4c0000000100dc
:101910000002000004000800001000000000200089
:101920002b2d23003000000004120000880000006e
:101930008200000001000000002a12002b122a0081
:10194000122a12002a122a00121a120000000000a5
:101950000000000000000000000000000000000087
:101960000000000000000000000208000101520019
:10197000125312005212520012521200521242001e
:101980001200000000000000000000000000000045
:101990000000000000000000000000000000020045
:1019a000080202007a127b00127a12007a127a0080
:1019b000127a12006a12000000000000000000000d
:1019c0000000000000000000000000000000000017
:1019d0000000000004122c0012541200000000004d
:1019e000000000000000000000000000aa1200003b
:1019f0000200000080000000ac12000002000000a5
:101a00008200000004000000a61200000400000094
:101a100080000000ae120000020000008200000002
:101a200001000000b0120000020000008000000071
:041a300000000000b2
:020000040000fa
:020000040005f5
:045fe000cfff0000ef
:020000040000fa
:020000040005f5
:045fe400ffff0000bb
:020000040000fa
:020000040005f5
:045fe8007fff000037
:020000040000fa
:020000040005f5
:045fec005dff000055
:020000040000fa
:020000040005f5
:045ff00078ff000036
:020000040000fa
:020000040005f5
:045ff400ffff0000ab
:00000001FF
